:020000040800F2
:100000008809002001010008090100080B0100080F
:100010000D0100080F010008110100080000000098
:1000200000000000000000000000000013010008B4
:10003000150100080000000017010008AD120008BB
:100040001B0100081B0100081B0100081B01000820
:100050001B0100081B0100081B0100081B01000810
:100060001B0100081B0100081B0100081B01000800
:100070001B0100081B0100081B0100081B010008F0
:100080001B0100081B0100081B0100081B010008E0
:100090001B0100081B0100081B0100081B010008D0
:1000A0001B0100081B0100081B0100081B010008C0
:1000B0007D1300081B010008A91300081B0100089C
:1000C0001B0100081B0100081B0100081B010008A0
:1000D0001B010008D91400081B0100081B010008BF
:1000E000590300081B0100081B010008DFF80CD0B1
:1000F00000F080F8004800479917000888090020A0
:100100000648804706480047FEE7FEE7FEE7FEE7B1
:10011000FEE7FEE7FEE7FEE7FEE7FEE73513000831
:10012000ED000008D2B201E000F8012B491EFBD21D
:1001300070470022F6E710B513460A4604461946F2
:10014000FFF7F0FF204610BDCAB2401E10F8011F95
:100150008A4202D00029F9D100207047421C10F8D1
:10016000011B0029FBD1801A704770B5064601F0CB
:10017000EFF9046805460A220021304600F002F833
:100180002C6070BD2DE9F04791460F46804604462D
:10019000002614F8015B2DB100F03EF80068405DC8
:1001A000C007F6D12B2D02D02D2D18D0641E4A4643
:1001B0003946204600F034F827B13968A14201D110
:1001C000C7F8008071054FF002040BD540420028AB
:1001D00003DD01F0BDF90460A007BDE8F08746F437
:1001E0008066E4E70028F8DA01F0B2F904606FF005
:1001F0000040F2E7064C074D06E0E06840F00103DE
:1002000094E8070098471034AC42F6D3FFF772FF2A
:10021000382E0008582E000800487047342E000879
:100220002DE9F05F82460078002715468B460AF1DB
:100230000104B946302801D09DB113E014F8010B38
:100240000127782803D0582801D045B10AE00DB124
:10025000102D07D10027102514F8010B02E0082506
:1002600000E00A250026B0460EE005FB080005FB6D
:1002700006F1012701EB10461FFA80F8B6F5803F22
:1002800000D3B94614F8010B294600F018F80028ED
:10029000EBDABBF1000F05D00FB1641E00E054464D
:1002A000CBF80040B9F1000F06D001F051F902215E
:1002B0000160C81EBDE8F09F48EA0640FAE73A2808
:1002C00000D2303820F02002412A01D3A2F13700B9
:1002D000884201D34FF0FF30704710B500F02AF983
:1002E00002460021084601F031FCBDE8104001F053
:1002F00061BD00000A4A907800280ED00948517864
:1003000050F8210093785B1E9370491CC9B251705C
:10031000202901D100215170704700207047000052
:100320000800002068000020094A917820290DD299
:10033000084B117843F82100491CC8B210702028DE
:1003400001D1002010709078401C90707047000020
:1003500008000020680000207047000010B500F081
:100360002FF900F01DF900F035F9064A06A101F059
:10037000DBF8FF2000F064F9012801D0002010BD57
:10038000012010BD20000020415425730000000012
:100390007FB5FFF7E3FF10B1012004B070BD134D2E
:1003A0004FF4807400222146284600F075FA00942C
:1003B00001220192022203926946284600F076F952
:1003C00001222146284600F067FA4FF4FA7001F046
:1003D0005BF900222146284600F05EFA4FF47A705D
:1003E00001F052F9FFF7BAFFD7E70000000801401B
:1003F00010B500F0E5F800F0D3F800F0EBF8314A62
:1004000031A101F091F840F6FF74204600F018F990
:10041000642001F039F900F0DDF82A4A2CA101F03E
:1004200083F8204600F00CF9642001F02DF900F06B
:10043000D1F8244A28A101F077F8204600F000F90D
:10044000642001F021F900F0C5F81E4A24A101F052
:100450006BF8204600F0F4F8642001F015F900F084
:10046000B9F8184A21A101F05FF8204600F0E8F839
:10047000642001F009F900F0ADF8124A1FA101F063
:1004800053F8204600F0DCF8642001F0FDF800F09D
:10049000A1F80C4A1CA101F047F8204600F0D0F862
:1004A000642001F0F1F800F095F8064A1BA101F074
:1004B0003BF8204600F0C4F8BDE81040642001F08D
:1004C000E3B8000020000020415425730000000024
:1004D00041544530257300004154563125730000C6
:1004E00041542B434D47463D3125730041542B4326
:1004F0005343533D2247534D2225730041542B4310
:100500005343423D3125730041542B434E4D493DE9
:10051000322C312C302C302C30257300415426578E
:100520003025730002490A7802430A7070470000C0
:100530002300002070B5002400F042F800F030F8ED
:1005400000F048F8124A13A100F0EEFF40F6FF70E9
:1005500000F076F8012818D100F038F83A21FFF7BA
:10056000F3FD851C2C212846FFF7EEFD00210170CC
:100570002846FFF7FAFDC1B2481F5E2805D2091FC1
:10058000032091FBF0F0401CC4B2204670BD000077
:100590002000002041542B435351257300000000DC
:1005A00010B580210448FFF7C4FD04480021818074
:1005B0000149816010BD00000805002014000020E2
:1005C00020210148FFF7B5BDE8040020004870472E
:1005D0000805002000487047E8040020124881699F
:1005E00044F2050211438161104801680021016055
:1005F000016841F4926101600D4940F27120086088
:10060000081D016841F00C010160016841F40051CE
:100610000160016841F02001016006492020086066
:1006200006490548886070470010024004080140F0
:100630000838014004E100E0080500201400002013
:100640002DE9F04707461548FFF788FD00F0FF0940
:100650000023134D00202870124E7468DFF83C8090
:1006600005E018F8030001F037F85B1CDBB24B45DE
:10067000F7D30D484FF47A710068B0FBF1F179437C
:1006800006E07068001B884202D90320BDE8F087AD
:1006900028780028F5D02878F8E70000E804002042
:1006A00014000020001000E0040000202DE9F84FA5
:1006B00000230024DFF8C0914FF00F0809F1040A6D
:1006C0000AF1040B0BF1040E0127A7400A683A4017
:1006D000BA4275D1DFF8A4C14D68A5EB0C0665459B
:1006E0002BD00DDC032D34D005DC35B3012D19D012
:1006F000022D2FD11BE0112D16D0122D2AD119E079
:10070000B6F5881F19D006DCB6F5803F15D0B6F5D2
:10071000801F1FD111E0B6F5001F0ED0B6F5041FE3
:1007200018D10AE0CB6815E0CB681B1D12E0CB683E
:1007300008330FE0CB680C330CE08B6823B1012B3E
:1007400004D00823476105E0042303E00823076180
:1007500000E00023FF2A01D8054601E000F104056E
:1007600002D84FEA840603E0A4F108064FEA8606A1
:100770002F6808FA06FC27EA0C0703FA06F647EA90
:1007800006072F604D68ED0070D53D4DAE6946F00F
:100790000106AE61AD6905F001050095394D24F003
:1007A00003067719BE68A5072D0F08FA05FC26EA8F
:1007B0000C06DFF8D4C0604503D14FF0000C17E001
:1007C00054E0DFF8C8C0604502D14FF0010C0FE0E3
:1007D000DFF8BCC0604502D14FF0020C08E0DFF842
:1007E000B4C0604502D14FF0030C01E04FF0040C9F
:1007F0000CFA05FC4CEA060CC7F808C04D68ED037E
:1008000005D5D9F800501543C9F8005004E0D9F8CF
:1008100000509543C9F800504D68AD0305D5DAF88E
:1008200000501543CAF8005004E0DAF80050954330
:10083000CAF800504D68ED0205D5DBF800501543AD
:10084000CBF8005004E0DBF800509543CBF80050A3
:100850004D68AD0205D5DEF800501543CEF80050C6
:1008600004E0DEF800509543CEF80050641C102CD4
:10087000FFF42AAFBDE8F88F00040140000011101A
:10088000001002400000014000080140000C01403F
:100890000010014000140140002A01D0016170479E
:1008A00009040161704700000148006870470000BA
:1008B0000000002002480168491C016070470000E8
:1008C0000000002010B50648016841F010010160E9
:1008D000032000F047F80F2000F004F8002010BDBE
:1008E0000020024010B5044607484FF47A720068B1
:1008F000B0FBF2F000F0F4FA00222146501E00F0A6
:1009000011F8002010BD00000400002000F01F02BC
:10091000012191404009800000F1E020C0F8001161
:1009200070470000F0B40D460D4B1B68C3F3022363
:10093000C3F10704042C00D90424191D072901D28E
:10094000002300E0DB1E012606FA04F1491E2940BF
:1009500099409E40761E16403143F0BC00F083BCA7
:100960000CED00E000F00701054A10684FF6FF03A8
:10097000184040EA01200349084310607047000016
:100980000CED00E00000FA052DE9F04704460E46A4
:10099000DFF84881D8F8000000F00700B0420FD21D
:1009A000D8F8000020F007003043C8F80000D8F85D
:1009B000000000F00700B04202D00120BDE8F0873F
:1009C0002078474F800705D57868A16820F0F000AF
:1009D000084378602078C00748D06068012806D0B6
:1009E000022809D0396889070BD40120E6E7396865
:1009F000890306D40120E1E73968890101D4012087
:100A0000DCE7796821F0030101437960FFF74CFFCF
:100A10000546606841F28839012809D0022814D0BF
:100A200020E0FFF741FF401B484501D90320C5E7FF
:100A30007868C0F381000128F3D117E0FFF734FF95
:100A4000401B484501D90320B8E77868C0F381000E
:100A50000228F3D10AE0FFF727FF401B484501D9E0
:100A60000320ABE7786810F00C0FF4D1D8F8000041
:100A700000F00700B0420ED9D8F8000020F00700BF
:100A80003043C8F80000D8F8000000F00700B0427A
:100A900001D0012092E72078400705D57868E16809
:100AA00020F4E060084378602078000706D5786875
:100AB000216920F4605040EAC100786000F01CF821
:100AC0007968084AC1F30311515CC84006490860BF
:100AD0000F20FFF707FF002070E700000020024012
:100AE00000100240841E0008040000200148006835
:100AF000704700000400002010B585B013A0D0E9B5
:100B000001130268C068CDE902130192049013A09A
:100B100000680090124B5968124801F00C02042A38
:100B20000FD0082A0DD101AAC1F38344125DC90375
:100B300009D55968C1F340411DF80110B0FBF1F02F
:100B4000504305B010BD08485043FAE702030405BE
:100B5000060708090A0B0C0D0E0F10100102000009
:100B60000010024000127A0000093D002DE9F84F04
:100B70000446D04D2078C0075BD06868C0F3810080
:100B8000012807D06868C0F3810002280AD168688C
:100B9000C00307D5286880034BD5606878BB012067
:100BA000BDE8F88F6068B0F5803F11D0A8B1B0F50E
:100BB000A02F1BD0286820F480302860286820F4FB
:100BC00080202860606830B3FFF76EFE06461EE0A6
:100BD000286840F480302860F4E7286820F48030EA
:100BE0002860286820F480202860EBE7286840F41B
:100BF00080202860286840F480302860E2E718E010
:100C0000FFF752FE801B642801D90320C8E728683B
:100C10008003F5D50DE0FFF747FE064606E0FFF737
:100C200043FE801B642801D90320B9E728688003AC
:100C3000F5D42078DFF8808280074FF0010A4FF06A
:100C4000000945D5686810F00C0F07D06868C0F33C
:100C50008100022812D16868C0030FD42868800779
:100C600004D52069012801D0012099E7286861692D
:100C700020F0F80040EAC100286029E02069B8B1FE
:100C8000C8F800A0FFF710FE064606E0FFF70CFECE
:100C9000801B022801D9032082E728688007F5D548
:100CA0002868616920F0F80040EAC10028600FE080
:100CB000C8F80090FFF7F8FD064606E0FFF7F4FDE0
:100CC000801B022801D903206AE728688007F5D431
:100CD0002078000726D57948A16999B1C0F800A00D
:100CE000FFF7E2FD064606E0FFF7DEFD801B022867
:100CF00001D9032054E7686A8007F5D5012000F088
:100D0000C3FA0FE0C0F80090FFF7CEFD064606E0FC
:100D1000FFF7CAFD801B022801D9032040E7686A5B
:100D20008007F5D42078400773D50026E869C00015
:100D300008D4E86940F08050E861E86900F080502C
:100D400000900126DFF878B1DBF80000C00514D46C
:100D5000DBF8000040F48070CBF80000FFF7A4FD42
:100D6000074606E0FFF7A0FDC01B642801D9032059
:100D700016E7DBF80000C005F4D5E068012812D0C2
:100D8000B0B105281DD0286A20F001002862286A29
:100D900020F004002862E06841F2883B28B3FFF7A6
:100DA00083FD07461DE0286A40F001002862F2E753
:100DB000286A20F001002862286A20F004002862D6
:100DC000E9E7286A40F004002862286A40F0010040
:100DD0002862E0E7FFF768FDC01B584501D90320F2
:100DE000DEE6286A8007F5D50DE0FFF75DFD0746D2
:100DF00006E0FFF759FDC01B584501D90320CFE697
:100E0000286A8007F5D4012E03D1E86920F08050CC
:100E1000E861E069A0B36968C1F38101022947D0A4
:100E2000022805D0C8F86090FFF73EFD04463AE07E
:100E3000C8F86090FFF738FD064606E0FFF734FD7E
:100E4000801B022801D90320AAE628688001F5D476
:100E5000206AB0F5803F05D16868A16820F40030B1
:100E600008436860D4E908010843696821F47411F3
:100E700008436860C8F860A0FFF716FD044607E065
:100E800014E0FFF711FD001B022801D9032087E6BB
:100E900028688001F5D509E0FFF706FD001B022850
:100EA00001D903207CE628688001F5D4002077E68C
:100EB000012075E6001002400000424280044242D8
:100EC000007000404FF0E021042804D0086920F0B1
:100ED000040008617047086940F004000861704729
:100EE00010B5401EB0F1807F01D3012010BD4FF03E
:100EF000E02460610F21601700F0B5F90020A061C7
:100F000007202061002010BD30B590F83C20012A58
:100F100020D0012380F83C30022280F83D20026876
:100F2000546824F070045460026854680D682C43BF
:100F300054600268946824F08004946002689468A5
:100F400049680C43946080F83D30002180F83C10E3
:100F5000002030BD022030BD10B50446002C03D067
:100F600094F83D0010B107E0012010BD002084F886
:100F70003C00204600F00CF8022084F83D00211DC2
:100F8000206800F03DFA012084F83D00002010BDEB
:100F900008B50068B0F1804F12D10A48C16941F02C
:100FA0000101C161C06900F001000090002205212B
:100FB0001C20FFF7B7FCBDE808401C20FFF7A6BCCB
:100FC00008BD0000001002400168CA6842F001023A
:100FD000CA600068016841F00101016000207047AB
:100FE00070B5044694F83C00012817D0012584F818
:100FF0003C50022084F83D002068826822F077028D
:1010000022F47F428260086850283AD00DDC202804
:101010005FD005DCA0B3102864D155E0022070BD7C
:1010200030285BD040285DD13FE0602833D0702865
:101030000CD0B0F5805F03D0B0F5005F52D113E063
:101040002068816821F0070181604BE0CB68D1E91D
:101050000121206800F00AFA2068816821F07701F8
:1010600041F0770181603DE0CB68D1E90121206842
:1010700000F0FCF92068816841F48041816031E032
:101080001DE0CA684968206800F002FA5021206813
:1010900000F0F6F926E0CA684968206800F009FA0D
:1010A0006021206800F0ECF91CE0CA6849682068FB
:1010B00000F0EEF94021206800F0E2F912E0002192
:1010C000206800F0DDF90DE01021206800F0D8F96B
:1010D00008E02021206800F0D3F903E030212068E7
:1010E00000F0CEF93C3465700020207070BD000027
:1010F0002DE9F04186B03248816941F020018161DB
:10110000816901F020010191816941F0080181614B
:10111000816901F008010191816941F00401816157
:10112000816901F004010191816941F0100181613F
:10113000806900F010000190224F4CF2F805002267
:1011400029463846FFF7A8FBDFF87C800122110210
:101150004046FFF7A1FB0124029400200390049471
:1011600002A93846FFF7A2FA6603029617480390D1
:10117000049402A93846FFF799FA029503940225D0
:10118000059502A93846FFF791FA4FF404500290F2
:101190000394059502A94046FFF788FA0296039446
:1011A000059502A90A48FFF781FA002205212820A7
:1011B000FFF7B8FB2820FFF7A9FB06B0BDE8F081D8
:1011C00000100240000C0140000801400000111016
:1011D0000010014010B586B018484FF08041016002
:1011E00048F6A04141600024846040F2CF71C160A4
:1011F00004618461FFF7B0FE18B1492110A000F02E
:1012000091F94FF48050029002A90C48FFF7E8FED4
:1012100018B14F210AA000F085F9009401946946A5
:101220000648FFF771FE18B1562105A000F07AF9C3
:101230000248FFF7C9FE06B010BD000028000020DC
:101240002E2E2F5372632F74696D2E6300000000E1
:1012500000F01F02012191404009800000F1E020D0
:10126000C0F8001170470907090E002806DA00F0DF
:101270000F0000F1E02080F8141D704700F1E0201D
:1012800080F800147047000008B507494FF4FA527F
:101290000968B1FBF2F14143009100BF0098411E83
:1012A0000091FAD208BD000004000020FFF702BB45
:1012B00030B58FB0012105910804069000240794F1
:1012C000099102250C950D904FF4E0100E9005A8A1
:1012D000FFF74CFC18B1172112A000F023F90F20E2
:1012E0000090019502944FF48060039004940221D1
:1012F0006846FFF749FB18B125210AA000F012F952
:10130000FFF7F4FB4FF47A71B0FBF1F0FFF7E8FD63
:101310000420FFF7D7FD00220F21501EFFF702FB2C
:101320000FB030BD2E2E5C5372635C73797374659D
:101330006D2E63000D48016841F0010101604168B4
:101340000B4A1140416001680A4A1140016001687E
:1013500021F480210160416821F4FE0141604FF4D5
:101360001F0181600449C0030860704700100240FB
:101370000000FFF8FFFFF6FE08ED00E0084A1078D5
:10138000401CC0B210703C21B0FBF1F301FB130014
:10139000002803D110700348FEF7C6BF7047000055
:1013A0000C000020DB02000812480168C9061FD5A6
:1013B000016821F0100101600F48818841800D49CA
:1013C00030310968818081884288914203D38188C5
:1013D0004088081A05E041884FF6FF728088511A4C
:1013E000084480B21F38042802D20448FEF79CBF8C
:1013F00070470000100800400C000020DB020008CD
:10140000F0B50268164C174D174E4FF08047A042BA
:1014100005D0B84203D0A84201D0B04203D122F097
:1014200070034A681A43A04205D0B84203D0A842CC
:1014300001D0B04203D122F44073CA681A4322F0AB
:1014400080024B69134303608A68C2620A68826241
:10145000A04201D10969016301214161F0BD000091
:10146000002C0140000400400008004010B58468D2
:1014700024F47F4442EA03220A432243826010BDDF
:10148000826822F070020A4342F0070181607047CF
:1014900010B5036A046A24F001040462846924F02C
:1014A000F00444EA021423F00A020A43846102624F
:1014B00010BD10B5036A23F0100303628469036A48
:1014C00024F4704444EA023223F0A00343EA0111F9
:1014D0008261016210BD00001048016889061BD5B9
:1014E000016821F020010160001D0068C0B20C4AB3
:1014F0004F2800D150804B2809D1518841F49641A2
:101500005180A1F596434F3B01D101211170918883
:101510004B1C938092685054704700000038014083
:1015200014000020FEE700000FB4084B10B504A91A
:1015300002AA039800F01FF8044602A9002000F058
:1015400085F8204610BC5DF814FB00004D1600081D
:10155000004870472400002002E008C8121F08C19C
:10156000002AFAD170477047002001E001C1121F24
:10157000002AFBD170472DE9F84F994692468846DC
:101580000546002706E025280AD051464A469047DE
:101590006D1C7F1C28780028F5D13846BDE8F88FEF
:1015A000002315F8011F18462E2915D115F8011F23
:1015B00004232A290DD06FF02F022978A1F13004DD
:1015C000092C09D800EB800002EB400008446D1C98
:1015D000F3E758F8040B6D1C2A78002ADDD0632A43
:1015E00007D0732A0FD0104651464A4690477F1CB9
:1015F0002AE018F8042B8DF8002000218DF8011046
:101600006E46012103E058F8046B4FF0FF315A0792
:101610004FF0000401D409E0641C84420BDA8C42D0
:10162000FADB325D002AF7D105E0641C8C42FCDB5A
:10163000305D0028F9D1274404E016F8010B51462B
:101640004A469047641EF8D26D1CA3E70A68531CF3
:101650000B601070704700004FF0E020016901F04E
:10166000010101610648016841F08071016005488F
:1016700000214160016841F00101016070470000F4
:10168000FCED00E0001000E010B5074A5168074B80
:101690004FF47A741B68B3FBF4F343435068401A69
:1016A0009842FBD310BD0000001000E004000020B1
:1016B00010B5064A5168064B064C1B68B3FBF4F3A1
:1016C00043435068401A9842FBD310BD001000E01D
:1016D0000400002040420F0003490A685206FCD56E
:1016E0000149091D086070470038014010B50549DF
:1016F000502008700520FFF7ABFDBDE810401E200C
:10170000FFF7A6BD05E400E01548816941F0050139
:101710008161C16941F00401C16113491148086048
:1017200011480C38016841F480710160016821F4AE
:101730007C410160001D016841F4005101600168B5
:1017400041F48051016008481C38016841F01001E3
:10175000016005482838016841F0010101607047C7
:10176000001002403F1901002808004010B5084849
:10177000816941F0010181610648416841F00071D1
:101780004160FFF7C1FFBDE81040FFF7AFBF0000A9
:10179000001002400000014008B5FFF793F8FFF782
:1017A00087FDFFF7E3FFFFF7A3FCFFF755FF0A20D4
:1017B000FFF76AFFFFF70EFD00F066FA00F034F95C
:1017C000FF2000F0B5F84FF47A752846FFF75CFF6C
:1017D000002000F0ADF8012410233FA200211220C8
:1017E000009400F030F910233FA219460020009425
:1017F00000F029F900F0DEFA2846FFF745FF002047
:1018000000F096F808242346434A02211820009449
:1018100000F0EAF91023414A02212820009400F048
:10182000E3F908233E4A02214020009400F0DCF94D
:1018300008233C4A02215A20009400F0D5F91023D5
:10184000394A02217020009400F0CEF93222102192
:10185000002000F04FF910213322084600F04AF929
:101860003A221021202000F045F9352210213020A5
:1018700000F040F936221021402000F03BF93A22D6
:101880002021502000F00AF934222021602000F0AD
:1018900005F937222021702000F000F910200146C0
:1018A00000902823214A572000F09EF900F082FA88
:1018B000FEF794FEFEF76CFD28B10120FEF732FE24
:1018C0002846FFF7E1FEFEF793FDFEF713FD002823
:1018D000FBD08047F9E70000312E33696E63682042
:1018E0004F4C454400000000546869732069732020
:1018F000612064656D6F20666F72205353443133ED
:1019000030362F31313036204F4C4544206D6F75C5
:10191000646C652100000000982D0008782D0008F7
:10192000A02D0008A82D0008882D0008182D0008FB
:1019300070B5054600240F4E04F1B000C0B200217E
:1019400000F05CFA0021022000F058FA002110207B
:1019500000F054FA002106EBC1000555491CC9B23C
:101960008029F8D3641CE4B2082CE5D3BDE87040AC
:1019700000F020BAE80000202DE9F04F83460E4623
:101980009946B246203A02F0FF08002543E0B9F13B
:101990000C0F06D00998B0B1214800EB0810445D47
:1019A00017E0099830B11F4808EB480100EB8100AF
:1019B000445D0EE01B4808EB480100EB8100405DF0
:1019C000C043C4B205E0164800EB0810405DC043B8
:1019D000C4B20027200605D501223146584600F042
:1019E00035F904E000223146584600F02FF9600630
:1019F000040E761CF6B2A6EB0A00484505D1564601
:101A00000BF1010B0BF0FF0B03E07F1CFFB2082F63
:101A1000E0D36D1CEDB24D45B9D3BDE8F08F0000A9
:101A200008230008941E000810B500218D2000F046
:101A3000E5F90021142000F0E1F90021BDE8104093
:101A4000AF2000F0DBB92DE9F84304460D461646F9
:101A50001F46DDF820801BE08020A0EB5700A0424D
:101A60000AD20024E819C5B2C7F14000A84203DA3F
:101A700000250020FFF75CFFCDF8008032783B4660
:101A800029462046FFF778FF04EB5700C4B2761CC6
:101A900030780028E0D1BDE8F88300002DE9F04758
:101AA00081460C46A04600271148303A00EB421A06
:101AB0001AF807600025F2092146484600F0C6F8EA
:101AC0007006060E641CE4B2A4EB0800102809D0CE
:101AD0006D1CEDB2082DEED37F1CFFB2202FE7D393
:101AE000BDE8F087444609F1010909F0FF09F3E771
:101AF000F82800082DE9F04781460C46A04600274B
:101B00001148303A00EB821A1AF807600025F209F2
:101B10002146484600F09AF87006060E641CE4B2AE
:101B2000A4EB0800202809D06D1CEDB2082DEED3DF
:101B30007F1CFFB2402FE7D3BDE8F087444609F190
:101B4000010909F0FF09F3E7582A00082DE9FF4FC2
:101B500082460E46934620A090E80E00C0688DE8AD
:101B60000E0003900025E846012700240AEB050932
:101B700018F8050004F0070107FA01F1084206D041
:101B80003019C1B209F0FF00012200F05FF8641CB7
:101B9000082CEDDB6D1C082DE7DB07250BF1070B8F
:101BA00015E000240AEB050918F8050004F0070108
:101BB00007FA01F1084206D03019C1B209F0FF005E
:101BC000012200F043F8641C082CEDDB6D1C5D4520
:101BD000E7DBBDE8FF8F000000030509FF090503EF
:101BE00080C0E0F0F8FCFEFF2DE9FF4F81B0824697
:101BF0009346984608F10700C008009000251EE0B3
:101C0000002400984FF0800905FB00F60298471960
:101C100011E00BEBD40004F00701305C29FA01F16C
:101C2000084206D00AEB0400F9B2C0B2012200F06B
:101C30000DF8641CA4B24445EBD36D1CADB20E98F4
:101C40008542DDD305B0BDE8F08F000010B57F28D8
:101C500013D83F2911D80723A3EBD103DBB201F03E
:101C60000701C1F107040121A140C9B2054C04EBF1
:101C7000C0001AB1C25C0A43C25410BDC25C8A43A0
:101C8000C25410BDE80000201FB5494C012280213C
:101C90002046FEF701FE002210212046FEF7FCFD43
:101CA000012240212046FEF7F7FD00222821204690
:101CB000FEF7F2FD282100910121019102210391FB
:101CC00069462046FEF7F2FC0021AE2000F096F8AF
:101CD0000021084600F092F80021102000F08EF854
:101CE0000021402000F08AF80021812000F086F8D1
:101CF0000021CF2000F082F80021A12000F07EF822
:101D00000021C02000F07AF80021A62000F076F82B
:101D10000021A82000F072F800213F2000F06EF8AA
:101D20000021D32000F06AF80021084600F066F890
:101D30000021D52000F062F80021802000F05EF83C
:101D40000021D92000F05AF80021F12000F056F8C7
:101D50000021DA2000F052F80021122000F04EF8A5
:101D60000021DB2000F04AF80021402000F046F876
:101D70000021202000F042F80021022000F03EF86F
:101D800000218D2000F03AF80021142000F036F8F0
:101D90000021A42000F032F80021A62000F02EF847
:101DA0000021AF2000F02AF80020FFF7C1FD1FBD81
:101DB000000C014070B500250F4E05F1B000C0B217
:101DC000002100F01BF80021022000F017F800218C
:101DD000102000F013F8002406EBC4000121405D40
:101DE00000F00CF8641CE4B2802CF5D36D1CEDB24D
:101DF000082DE2D370BD0000E800002070B5054654
:101E00000C461F4E002280213046FEF745FD2CB1C6
:101E1000012210213046FEF73FFD04E00022102190
:101E20003046FEF739FD0024002208213046FEF737
:101E300033FD0A20FFF73CFC280605D501222021AE
:101E40003046FEF729FD04E0002220213046FEF74F
:101E500023FD012208213046FEF71EFD6806050E0F
:101E6000641C082CE0DB012210213046FEF714FD33
:101E70003046BDE8704001228021FEF70DBD000014
:101E8000000C0140000000000000000001020304FB
:101E90000607080900000000000000000000000024
:101EA000000000003F400000000000000000300083
:101EB000400030004000000009000BC03D000BC096
:101EC0003D00090018C024407FE02240318000001E
:101ED000180024C01B000D803240018003801C408C
:101EE00027401C80074000401000600000000000F8
:101EF000000000000000000000001F802040402083
:101F00000000402020401F80000000000900060063
:101F10001F80060009000000040004003F80040048
:101F2000040000000010006000000000000000003D
:101F3000040004000400040004000000000000404D
:101F40000000000000000000002001C00600380072
:101F5000400000001F802040204020401F800000E3
:101F6000000010403FC000400000000018C02140A9
:101F7000224024401840000010802040244024408B
:101F80001B80000002000D0011003FC00140000056
:101F90003C80244024402440238000001F802440B3
:101FA00024403440038000003000200027C0380067
:101FB000200000001B802440244024401B8000009F
:101FC0001C0022C0224022401F80000000000000B0
:101FD0000840000000000000000000000460000055
:101FE00000000000000004000A00110020804040B2
:101FF0000900090009000900090000000000404034
:10200000208011000A000400180020002340240052
:10201000180000001F802040274029401F4000007A
:10202000004007C039000F0001C0004020403FC001
:10203000244024401B8000001F802040204020407E
:102040003080000020403FC0204020401F80000022
:1020500020403FC024402E4030C0000020403FC000
:1020600024402E00300000000F001080204022404D
:102070003380020020403FC0040004003FC02040E5
:10208000204020403FC02040204000000060202031
:1020900020203FC02000200020403FC024400B00F3
:1020A00030C0204020403FC020400040004000C0E1
:1020B0003FC03C0003C03C003FC0000020403FC088
:1020C0000C4023003FC020001F80204020402040C3
:1020D0001F80000020403FC0244024001800000062
:1020E0001F802140214020E01FA0000020403FC071
:1020F0002440260019C0004018C02440244022403B
:1021000031800000300020403FC0204030000000FF
:1021100020003F80004000403F80200020003E0023
:1021200001C0070038002000380007C03C0007C08D
:1021300038000000204039C0060039C020400000AF
:102140002000384007C0384020000000304021C047
:102150002640384020C00000000000007FE0402002
:1021600040200000000070000C00038000400000D0
:102170000000402040207FE0000000000000200020
:1021800040002000000000000010001000100010AF
:1021900000100010000000004000000000000000DF
:1021A000000002800540054003C0004020003FC001
:1021B0000440044003800000000003800440044009
:1021C0000640000000000380044024403FC000405F
:1021D000000003800540054003400000000004406B
:1021E0001FC0244024402000000002E0055005509C
:1021F0000650042020403FC00440040003C00040BB
:102200000000044027C00040000000000010001043
:10221000041027E00000000020403FC001400700FC
:1022200004C00440204020403FC000400040000067
:1022300007C0040007C0040003C00000044007C03A
:102240000440040003C00040000003800440044038
:1022500003800000041007F00450044003800000D5
:10226000000003800440045007F00010044007C041
:102270000240040004000000000006400540054044
:1022800004C00000000004001F8004400040000063
:10229000040007800040044007C00040040007001D
:1022A00004C0018006000400060001C0070001C050
:1022B00006000000044006C0010006C00440000003
:1022C0000410071004E00180060004000000044030
:1022D00005C00640044000000000000004007BE050
:1022E00040200000000000000000FFF0000000009F
:1022F000000040207BE0040000000000400080005F
:10230000400020002000400000000000000000000D
:1023100000000000000000000000000000001FCCD2
:10232000000C000000000000000008003000600009
:102330000800300060000000022003FC1E20022084
:1023400003FC1E200220000000000E1811043FFFB5
:1023500010840C78000000000F0010840F3800C0BB
:10236000077818840078000000780F8410C41124C6
:102370000E9800E400840008080068007000000067
:10238000000000000000000000000000000007E066
:102390001818200440020000000040022004181811
:1023A00007E00000000000000240024001800FF042
:1023B00001800240024000000080008000800FF891
:1023C00000800080008000000001000D000E000071
:1023D000000000000000000000000080008000807D
:1023E00000800080008000800000000C000C0000D5
:1023F000000000000000000000000006001800605F
:102400000180060018002000000007F008081004F2
:102410001004080807F000000000080408041FFC6E
:10242000000400040000000000000E0C1014102432
:10243000104411840E0C000000000C18100411044C
:10244000110412880C700000000000E00320042436
:1024500008241FFC0024000000001F9810841104B1
:102460001104108810700000000007F008881104A3
:10247000110418880070000000001C00100010FCFF
:1024800013001C001000000000000E3811441084DE
:10249000108411440E38000000000700088C10441E
:1024A0001044088807F00000000000000000030C42
:1024B000030C000000000000000000000001010605
:1024C0000000000000000000000000800140022029
:1024D000041008081004000002200220022002203C
:1024E000022002200220000000001004080804104E
:1024F000022001400080000000000E001200100CBD
:10250000106C10800F00000003E00C1813E414247A
:1025100017C4082807D000000004003C03C41C4076
:10252000074000E4001C000410041FFC1104110407
:1025300011040E880070000003E00C181004100451
:10254000100410081C10000010041FFC10041004DC
:102550001004080807F0000010041FFC1104110407
:1025600017C410040818000010041FFC1104110007
:1025700017C010000800000003E00C18100410043D
:1025800010441C780040000010041FFC10840080E0
:10259000008010841FFC10040000100410041FFCB5
:1025A00010041004000000000003000110011001DD
:1025B0001FFE10001000000010041FFC1104038017
:1025C0001464181C1004000010041FFC1004000404
:1025D00000040004000C000010041FFC1F0000FC9D
:1025E0001F001FFC1004000010041FFC0C0403005B
:1025F00000E010181FFC100007F008081004100479
:102600001004080807F0000010041FFC108410805C
:10261000108010800F00000007F00818102410240C
:10262000101C080A07F2000010041FFC110411001E
:1026300011C011300E0C000400000E1C1104108497
:10264000108410441C3800001800100010041FFCF7
:10265000100410001800000010001FF810040004FF
:10266000000410041FF8100010001E0011E0001CF0
:10267000007013801C0010001FC0103C00E01F0001
:1026800000E0103C1FC000001004180C163401C0FC
:1026900001C01634180C100410001C00130400FCB8
:1026A00013041C00100000000804101C10641084A7
:1026B00013041C04101800000000000000007FFE3E
:1026C0004002400240020000000030000C00038085
:1026D0000060001C000300000000400240024002B5
:1026E0007FFE00000000000000000000200040000D
:1026F0004000400020000000000100010001000136
:102700000001000100010001000040004000200025
:1027100000000000000000000000009801240144B7
:102720000144014400FC000410001FFC0088010467
:10273000010400880070000000000070008801049F
:1027400001040104008800000000007000880104FA
:10275000010411081FFC0004000000F801440144BA
:102760000144014400C800000000010401040FFC02
:102770001104110411001800000000D601290129DC
:10278000012901C90106000010041FFC008401009A
:102790000100010400FC000400000104190419FCFC
:1027A000000400040000000000000003000101011B
:1027B000190119FE0000000010041FFC0024004055
:1027C00001B4010C010400000000100410041FFCFF
:1027D0000004000400000000010401FC01040100E9
:1027E00001FC0104010000FC010401FC0084010063
:1027F0000100010400FC0004000000F801040104D1
:102800000104010400F80000010101FF008501043A
:1028100001040088007000000000007000880104BE
:102820000104010501FF00010104010401FC008411
:102830000104010001800000000000CC01240124FB
:10284000012401240198000000000100010007F8A4
:102850000104010400000000010001F8000400046C
:102860000004010801FC0004010001800170000C5B
:10287000001001600180010001F0010C003001C076
:102880000030010C01F0010000000104018C007413
:102890000170018C01040000010101810171000E31
:1028A000001801600180010000000184010C013466
:1028B00001440184010C0000000000000000000041
:1028C00001003EFC40024002000000000000000049
:1028D000FFFF0000000000000000400240023EFC3C
:1028E0000100000000000000000060008000800087
:1028F000400040002000200000003FFC3FFC300C66
:10290000300C300C300C300C300C300C300C300CE7
:10291000300C3FFC3FFC0000000000000000000005
:10292000000000000000300030003FFC3FFC0000D1
:102930000000000000000000000039FC39FC318C70
:10294000318C318C318C318C318C318C318C318C9F
:10295000318C3F8C3F8C00000000381C381C318CBF
:10296000318C318C318C318C318C318C318C318C7F
:10297000318C3FFC3FFC000000003F803F80018025
:10298000018001800180018001800180018001803F
:1029900001803FFC3FFC000000003FBC3FBC318C8D
:1029A000318C318C318C318C318C318C318C318C3F
:1029B000318C31FC31FC000000003F9C3F9C318C8D
:1029C000318C318C318C318C318C318C318C318C1F
:1029D000318C31FC31FC0000000038003800300040
:1029E0003000300030003000300030003000300067
:1029F00030003FFC3FFC000000003FFC3FFC318CFE
:102A0000318C318C318C318C318C318C318C318CDE
:102A1000318C3FFC3FFC000000003F9C3F9C318C10
:102A2000318C318C318C318C318C318C318C318CBE
:102A3000318C3FFC3FFC0000000000000000000063
:102A400000000000000018301830000000000000F6
:102A50000000000000000000000000000000000076
:102A60003FFFFFFC3FFFFFFC3000000C3000000C7C
:102A70003000000C3000000C3000000C3000000C66
:102A80003000000C3000000C3FFFFFFC3FFFFFFC5C
:102A90000000000000000000000000000000000036
:102AA0000000000000000000000000000000000026
:102AB00030000000300000003FFFFFFC3FFFFFFC44
:102AC0000000000000000000000000000000000006
:102AD00000000000000000000000000000000000F6
:102AE0003C01FFFC3C01FFFC3001800C3001800CFC
:102AF0003001800C3001800C3001800C3001800CE2
:102B00003001800C3001800C3FFF800C3FFF800CB7
:102B100000000000000000000000000000000000B5
:102B20003800003C3800003C3001800C3001800C43
:102B30003001800C3001800C3001800C3001800CA1
:102B40003001800C3001800C3FFFFFFC3FFFFFFC99
:102B50000000000000000000000000000000000075
:102B60003FFF80003FFF80000001800000018000E7
:102B70000001800000018000000180000001800051
:102B800000018000000180003FFFFFFC3FFFFFFCD1
:102B90000000000000000000000000000000000035
:102BA0003FFF803C3FFF803C3001800C3001800CB7
:102BB0003001800C3001800C3001800C3001800C21
:102BC0003001800C3001800C3001FFFC3001FFFC33
:102BD00000000000000000000000000000000000F5
:102BE0003FFFFFFC3FFFFFFC3001800C3001800CF9
:102BF0003001800C3001800C3001800C3001800CE1
:102C00003001800C3001800C3C01FFFC3C01FFFCDA
:102C100000000000000000000000000000000000B4
:102C20003C0000003C0000003000000030000000CC
:102C300030000000300000003000000030000000D4
:102C400030000000300000003FFFFFFC3FFFFFFCB2
:102C50000000000000000000000000000000000074
:102C60003FFFFFFC3FFFFFFC3001800C3001800C78
:102C70003001800C3001800C3001800C3001800C60
:102C80003001800C3001800C3FFFFFFC3FFFFFFC58
:102C90000000000000000000000000000000000034
:102CA0003FFF803C3FFF803C3001800C3001800CB6
:102CB0003001800C3001800C3001800C3001800C20
:102CC0003001800C3001800C3FFFFFFC3FFFFFFC18
:102CD00000000000000000000000000000000000F4
:102CE0000000000000000000000000000FF00FF0E6
:102CF0000FF00FF00C0000300C0000300FF00FF060
:102D00000FF00FF0000000000000000000000000C5
:102D100000000000000000000000000000000000B3
:102D200000003FF1818FFC3FF1818FFC3031818CBD
:102D30000C3001818C0C3001818C0C3FF1818C0CAA
:102D40003FF1818C0C0031818C0C0031818C0C3076
:102D500031818C0C3FF1FF8C0C3FF1FF8C0C00009B
:102D60000000000000000000000000000000000063
:102D700000000000000000001FF8100818181428B8
:102D800013C8100810081FF80FFE300226DA26DAE2
:102D900026DA26DA30020FFE1854321C1C32541880
:102DA000C39924202C2499C3C3BD42524E423CC334
:102DB000004040404040404040404141414141404E
:102DC0004040404040404040404040404040404003
:102DD0004005020202020202020202020202020292
:102DE0000220202020202020202020020202020297
:102DF00002029090909090901010101010101010EF
:102E000010101010101010101010101002020202FA
:102E1000020288888888888808080808080808083E
:102E2000080808080808080808080808020202023A
:102E300040000000B12D0008582E000800000020BE
:102E40002800000058150008802E000828000020E7
:102E500060090000681500080000000000A24A0494
:102E60000000000000000000000000000000000062
:102E700000000000000000000D0000000000000045
:04000005080000ED02
:00000001FF
