:020000040800F2
:100000004809002001010008090100080B0100084F
:100010000D0100080F010008110100080000000098
:1000200000000000000000000000000013010008B4
:100030001501000800000000170100081901000860
:100040001B0100081B0100081B0100081B01000820
:100050001B0100081B0100081B0100081B01000810
:100060001B0100081B0100081B0100081B01000800
:100070001B0100081B0100081B0100081B010008F0
:100080001B0100081B0100081B0100081B010008E0
:100090001B0100081B0100081B0100081B010008D0
:1000A0001B0100081B0100081B0100081B010008C0
:1000B000810700081B010008BD0700081B0100089C
:1000C0001B0100081B0100081B0100081B010008A0
:1000D0001B010008150800081B0100081B0100088F
:1000E000590300081B0100081B010008DFF80CD0B1
:1000F00000F080F8004800478D0B000848090020F8
:100100000648804706480047FEE7FEE7FEE7FEE7B1
:10011000FEE7FEE7FEE7FEE7FEE7FEE73907000839
:10012000ED000008D2B201E000F8012B491EFBD21D
:1001300070470022F6E710B513460A4604461946F2
:10014000FFF7F0FF204610BDCAB2401E10F8011F95
:100150008A4202D00029F9D100207047421C10F8D1
:10016000011B0029FBD1801A704770B5064600F0CC
:100170008BFB046805460A220021304600F002F895
:100180002C6070BD2DE9F04791460F46804604462D
:10019000002614F8015B2DB100F03EF80068405DC8
:1001A000C007F6D12B2D02D02D2D18D0641E4A4643
:1001B0003946204600F034F827B13968A14201D110
:1001C000C7F8008071054FF002040BD540420028AB
:1001D00003DD00F059FB0460A007BDE8F08746F49A
:1001E0008066E4E70028F8DA00F04EFB04606FF068
:1001F0000040F2E7064C074D06E0E06840F00103DE
:1002000094E8070098471034AC42F6D3FFF772FF2A
:10021000F02100081022000800487047EC21000877
:100220002DE9F05F82460078002715468B460AF1DB
:100230000104B946302801D09DB113E014F8010B38
:100240000127782803D0582801D045B10AE00DB124
:10025000102D07D10027102514F8010B02E0082506
:1002600000E00A250026B0460EE005FB080005FB6D
:1002700006F1012701EB10461FFA80F8B6F5803F22
:1002800000D3B94614F8010B294600F018F80028ED
:10029000EBDABBF1000F05D00FB1641E00E054464D
:1002A000CBF80040B9F1000F06D000F0EDFA0221C2
:1002B0000160C81EBDE8F09F48EA0640FAE73A2808
:1002C00000D2303820F02002412A01D3A2F13700B9
:1002D000884201D34FF0FF30704710B500F012F99B
:1002E00002460021084600F023FEBDE8104000F061
:1002F00045BF00000A4A907800280ED0094851787E
:1003000050F8210093785B1E9370491CC9B251705C
:10031000202901D100215170704700207047000052
:100320000400002024000020094A917820290DD2E1
:10033000084B117843F82100491CC8B210702028DE
:1003400001D1002010709078401C90707047000020
:1003500004000020240000207047012A02D0090474
:10036000016170470161704710B500F011F900F0AC
:10037000FFF800F017F9064A06A100F071FAFF2015
:1003800000F046F9012801D0002010BD012010BD69
:100390000E000020415425730000000010B5FFF747
:1003A000E3FF08B1012010BD4FF4FA7000F008FB24
:1003B0004FF47A7000F004FBBDE81040FFF7D4BFA3
:1003C00010B500F0E5F800F0D3F800F0EBF8314A92
:1003D00031A100F045FA40F6FF74204600F018F90C
:1003E000642000F0EDFA00F0DDF82A4A2CA100F0BC
:1003F00037FA204600F00CF9642000F0E1FA00F032
:10040000D1F8244A28A100F02BFA204600F000F988
:10041000642000F0D5FA00F0C5F81E4A24A100F0CF
:100420001FFA204600F0F4F8642000F0C9FA00F04A
:10043000B9F8184A21A100F013FA204600F0E8F8B4
:10044000642000F0BDFA00F0ADF8124A1FA100F0E0
:1004500007FA204600F0DCF8642000F0B1FA00F062
:10046000A1F80C4A1CA100F0FBF9204600F0D0F8DE
:10047000642000F0A5FA00F095F8064A1BA100F0F0
:10048000EFF9204600F0C4F8BDE81040642000F009
:1004900097BA00000E0000204154257300000000B0
:1004A00041544530257300004154563125730000F6
:1004B00041542B434D47463D3125730041542B4356
:1004C0005343533D2247534D2225730041542B4340
:1004D0005343423D3125730041542B434E4D493D1A
:1004E000322C312C302C302C3025730041542657BF
:1004F0003025730002490A7802430A7070470000F1
:100500001100002070B5002400F042F800F030F82F
:1005100000F048F8124A13A100F0A2F940F6FF706B
:1005200000F076F8012818D100F038F83A21FFF7EA
:100530000BFE851C2C212846FFF706FE00210170CA
:100540002846FFF712FEC1B2481F5E2805D2091FD8
:10055000032091FBF0F0401CC4B2204670BD0000A7
:100560000E00002041542B4353512573000000001E
:1005700010B580210448FFF7DCFD0448002181808C
:100580000149816010BD0000C40400201400002057
:1005900020210148FFF7CDBDA4040020004870478A
:1005A000C404002000487047A40400201248816958
:1005B00044F2050211438161104801680021016085
:1005C000016841F4926101600D4940F271200860B8
:1005D000081D016841F00C010160016841F40051FF
:1005E0000160016841F02001016006492020086097
:1005F0000649054888607047001002400408014021
:100600000838014004E100E0C40400201400002088
:100610002DE9F04707461548FFF7A0FD00F0FF0958
:100620000023134D00202870124E7468DFF83C80C0
:1006300005E018F8030000F0EBF95B1CDBB24B455A
:10064000F7D30D484FF47A710068B0FBF1F17943AC
:1006500006E07068001B884202D90320BDE8F087DD
:1006600028780028F5D02878F8E70000A4040020B6
:1006700014000020001000E00000002000F01F0225
:10068000012191404009800000F1E020C0F80011F4
:10069000704700000CB500200190009024480168CC
:1006A00021F001010160016841F4803101600168BD
:1006B00001F4003100910199491C0191009911B98F
:1006C00001996429F3D10168890330D519490A6871
:1006D00042F010020A600A6822F007020A600A6803
:1006E00042F004020A60416841604168416041682B
:1006F00041F480614160416821F47C1141604168AE
:1007000041F4E8114160016841F0807101600168C5
:100710008901FCD5416821F003014160416841F045
:10072000020141604168C1F381010229FAD10CBD87
:1007300000100240002002400D48016841F0010114
:10074000016041680B4A1140416001680A4A11404A
:100750000160016821F480210160416821F4FE01FB
:1007600041604FF41F0181600449C0030860704775
:10077000001002400000FFF8FFFFF6FE08ED00E069
:100780004FF080400169C90713D0016921F00101D0
:100790000161084A1078401CC0B210703C21B0FBC7
:1007A000F1F301FB1300002803D110700248FFF79A
:1007B000BBBD704708000020DB020008124801683A
:1007C000C9061FD5016821F0100101600F4881881A
:1007D00041800D4930310968818081884288914289
:1007E00003D381884088081A05E041884FF6FF72DC
:1007F0008088511A084480B21F38042802D2044865
:10080000FFF792BD7047000010080040080000206C
:10081000DB0200081048016889061BD5016821F039
:1008200020010160001D0068C0B20C4A4F2800D1B1
:1008300050804B2809D1518841F496415180A1F54F
:1008400096434F3B01D10121117091884B1C93803D
:100850009268505470470000003801401400002096
:100860000FB4084B10B504A902AA039800F01FF8B2
:10087000044602A9002000F085F8204610BC5DF86F
:1008800014FB000085090008004870472000002084
:1008900002E008C8121F08C1002AFAD17047704749
:1008A000002001E001C1121F002AFBD170472DE991
:1008B000F84F9946924688460546002706E02528C7
:1008C0000AD051464A4690476D1C7F1C2878002864
:1008D000F5D13846BDE8F88F002315F8011F1846FA
:1008E0002E2915D115F8011F04232A290DD06FF0E8
:1008F0002F022978A1F13004092C09D800EB8000DF
:1009000002EB400008446D1CF3E758F8040B6D1C23
:100910002A78002ADDD0632A07D0732A0FD0104628
:1009200051464A4690477F1C2AE018F8042B8DF860
:10093000002000218DF801106E46012103E058F8D7
:10094000046B4FF0FF315A074FF0000401D409E067
:10095000641C84420BDA8C42FADB325D002AF7D148
:1009600005E0641C8C42FCDB305D0028F9D1274493
:1009700004E016F8010B51464A469047641EF8D22F
:100980006D1CA3E70A68531C0B60107070470000D1
:100990004FF0E020016901F00101016106480168A2
:1009A00041F080710160054800214160016841F01B
:1009B0000101016070470000FCED00E0001000E064
:1009C00010B5074A5168074B4FF47A741B68B3FBA4
:1009D000F4F343435068401A9842FBD310BD000023
:1009E000001000E00000002010B5064A5168064BD8
:1009F000064C1B68B3FBF4F343435068401A98421B
:100A0000FBD310BD001000E00000002040420F00AA
:100A100003490A685206FCD50149091D0860704760
:100A20000038014010B50549502008700520FFF737
:100A300025FEBDE810401E20FFF720BE05E400E0C3
:100A40000A48C16941F00101C161800448F69F4133
:100A5000816240F2CF71C162C16841F00101C160A1
:100A6000016841F001010160704700000010024080
:100A70001348C16941F00401C1611349114808607C
:100A800011480C38016841F480710160016821F45B
:100A90007C410160001D016841F400510160016862
:100AA00041F48051016008481C38016841F0100190
:100AB000016005482838016841F001010160704774
:100AC000001002403F190100280800401F488169BA
:100AD00041F00401816100BF816941F00801816139
:100AE00000BF816941F01001816100BF816941F05F
:100AF0002001816100BF1648016821F44041016076
:100B0000016841F480510160016821F440210160D5
:100B1000016841F480310160016821F44001016005
:100B2000016841F480110160016821F040610160B9
:100B3000016841F080710160016821F0404101606D
:100B4000016841F0805101607047000000100240D0
:100B5000000C014010B5FFF79DFD0A48816941F086
:100B6000010181610848416841F000714160FFF76F
:100B70007FFFFFF765FFFFF755FFBDE81040FFF768
:100B8000A5BF0000001002400000014008B5FFF7BB
:100B9000E1FFFFF7FDFE0A20FFF712FF00F066FA03
:100BA00000F034F9FF2000F0B5F84FF47A752846CC
:100BB000FFF706FF002000F0ADF8012410233FA24C
:100BC00000211220009400F030F910233FA21946B2
:100BD0000020009400F029F900F0D0FA2846FFF731
:100BE000EFFE002000F096F808242346434A022135
:100BF0001820009400F0EAF91023414A022128202D
:100C0000009400F0E3F908233E4A022140200094BA
:100C100000F0DCF908233C4A02215A20009400F03D
:100C2000D5F91023394A02217020009400F0CEF942
:100C300032221021002000F04FF910213322084603
:100C400000F04AF93A221021202000F045F935221F
:100C50001021302000F040F936221021402000F011
:100C60003BF93A222021502000F00AF934222021B9
:100C7000602000F005F937222021702000F000F9F3
:100C80001020014600902823214A572000F09EF9A9
:100C900000F074FAFFF78AFCFFF780FB28B101200F
:100CA000FFF728FC2846FFF78BFEFFF789FBFFF7CD
:100CB00021FB0028FBD08047F9E70000312E336983
:100CC0006E6368204F4C454400000000546869730F
:100CD00020697320612064656D6F20666F722053F8
:100CE0005344313330362F31313036204F4C454468
:100CF000206D6F75646C65210000000050210008B4
:100D00003021000858210008602100084021000817
:100D1000D020000870B5054600240F4E04F1B00045
:100D2000C0B2002100F04EFA0021022000F04AFA81
:100D30000021102000F046FA002106EBC100055505
:100D4000491CC9B28029F8D3641CE4B2082CE5D34D
:100D5000BDE8704000F012BAA40000202DE9F04F69
:100D600083460E469946B246203A02F0FF08002517
:100D700043E0B9F10C0F06D00998B0B1214800EB5F
:100D80000810445D17E0099830B11F4808EB48018E
:100D900000EB8100445D0EE01B4808EB480100EBCE
:100DA0008100405DC043C4B205E0164800EB081066
:100DB000405DC043C4B20027200605D5012231465C
:100DC000584600F035F904E000223146584600F05C
:100DD0002FF96006040E761CF6B2A6EB0A00484511
:100DE00005D156460BF1010B0BF0FF0B03E07F1C06
:100DF000FFB2082FE0D36D1CEDB24D45B9D3BDE86D
:100E0000F08F0000C01600084C12000810B5002139
:100E10008D2000F0D7F90021142000F0D3F9002133
:100E2000BDE81040AF2000F0CDB92DE9F8430446ED
:100E30000D4616461F46DDF820801BE08020A0EB03
:100E40005700A0420AD20024E819C5B2C7F14000F9
:100E5000A84203DA00250020FFF75CFFCDF80080F0
:100E600032783B4629462046FFF778FF04EB5700CF
:100E7000C4B2761C30780028E0D1BDE8F8830000C9
:100E80002DE9F04781460C46A04600271148303A2C
:100E900000EB421A1AF807600025F209214648467D
:100EA00000F0C6F87006060E641CE4B2A4EB08005D
:100EB000102809D06D1CEDB2082DEED37F1CFFB2B7
:100EC000202FE7D3BDE8F087444609F1010909F076
:100ED000FF09F3E7B01C00082DE9F04781460C46F6
:100EE000A04600271148303A00EB821A1AF8076032
:100EF0000025F2092146484600F09AF87006060ED1
:100F0000641CE4B2A4EB0800202809D06D1CEDB2EB
:100F1000082DEED37F1CFFB2402FE7D3BDE8F0874A
:100F2000444609F1010909F0FF09F3E7101E000822
:100F30002DE9FF4F82460E46934620A090E80E0012
:100F4000C0688DE80E0003900025E84601270024C4
:100F50000AEB050918F8050004F0070107FA01F18A
:100F6000084206D03019C1B209F0FF00012200F09A
:100F70005FF8641C082CEDDB6D1C082DE7DB0725F2
:100F80000BF1070B15E000240AEB050918F8050022
:100F900004F0070107FA01F1084206D03019C1B286
:100FA00009F0FF00012200F043F8641C082CEDDB7F
:100FB0006D1C5D45E7DBBDE8FF8F00000003050900
:100FC000FF09050380C0E0F0F8FCFEFF2DE9FF4FAC
:100FD00081B082469346984608F10700C008009009
:100FE00000251EE0002400984FF0800905FB00F664
:100FF0000298471911E00BEBD40004F00701305CB4
:1010000029FA01F1084206D00AEB0400F9B2C0B295
:10101000012200F00DF8641CA4B24445EBD36D1C12
:10102000ADB20E988542DDD305B0BDE8F08F00006B
:1010300010B57F2813D83F2911D80723A3EBD1037C
:10104000DBB201F00701C1F107040121A140C9B2DF
:10105000054C04EBC0001AB1C25C0A43C25410BD77
:10106000C25C8A43C25410BDA400002010B5424C9B
:10107000012280212046FFF770F90022102120462E
:10108000FFF76BF9012240212046FFF766F90021A6
:10109000AE2000F097F80021084600F093F80021F8
:1010A000102000F08FF80021402000F08BF8002184
:1010B000812000F087F80021CF2000F083F8002184
:1010C000A12000F07FF80021C02000F07BF8002173
:1010D000A62000F077F80021A82000F073F8002186
:1010E0003F2000F06FF80021D32000F06BF80021C2
:1010F000084600F067F80021D52000F063F80021D1
:10110000802000F05FF80021D92000F05BF800217A
:10111000F12000F057F80021DA2000F053F8002108
:10112000122000F04FF80021DB2000F04BF80021E6
:10113000402000F047F80021202000F043F8002173
:10114000022000F03FF800218D2000F03BF8002144
:10115000142000F037F80021A42000F033F800211B
:10116000A62000F02FF80021AF2000F02BF8BDE8FA
:1011700010400020FFF7CEBD000C014070B50025E7
:101180000F4E05F1B000C0B2002100F01BF80021A5
:10119000022000F017F80021102000F013F80024BE
:1011A00006EBC4000121405D00F00CF8641CE4B2C1
:1011B000802CF5D36D1CEDB2082DE2D370BD00007C
:1011C000A400002070B505460C461F4E0022802169
:1011D0003046FFF7C2F82CB1012210213046FFF74C
:1011E000BCF804E0002210213046FFF7B6F80024D6
:1011F000002208213046FFF7B0F80A20FFF7F4FB81
:10120000280605D5012220213046FFF7A6F804E084
:10121000002220213046FFF7A0F8012208213046A5
:10122000FFF79BF86806050E641C082CE0DB012222
:1012300010213046FFF791F83046BDE8704001229A
:101240008021FFF78AB80000000C01400000000078
:101250000000000000000000000000003F4000000F
:10126000000000000000300040003000400000009E
:1012700009000BC03D000BC03D00090018C0244010
:101280007FE0224031800000180024C01B000D8048
:101290003240018003801C4027401C8007400040F2
:1012A00010006000000000000000000000000000CE
:1012B00000001F80204040200000402020401F8070
:1012C00000000000090006001F8006000900000061
:1012D000040004003F8004000400000000100060CF
:1012E00000000000000000000400040004000400EE
:1012F00004000000000000400000000000000000AA
:10130000002001C006003800400000001F8020407F
:10131000204020401F800000000010403FC00040DF
:101320000000000018C02140224024401840000066
:1013300010802040244024401B80000002000D004B
:1013400011003FC0014000003C8024402440244064
:10135000238000001F80244024403440038000008C
:101360003000200027C03800200000001B802440EF
:10137000244024401B8000001C0022C02240224048
:101380001F80000000000000084000000000000076
:1013900000000000046000000000000000000400E5
:1013A0000A001100208040400900090009000900DE
:1013B0000900000000004040208011000A000400E5
:1013C0001800200023402400180000001F80204047
:1013D000274029401F400000004007C039000F008F
:1013E00001C0004020403FC0244024401B8000003A
:1013F0001F802040204020403080000020403FC01F
:10140000204020401F80000020403FC024402E404C
:1014100030C0000020403FC024402E0030000000BB
:101420000F001080204022403380020020403FC047
:10143000040004003FC02040204020403FC0204026
:10144000204000000060202020203FC0200020001D
:1014500020403FC024400B0030C0204020403FC00F
:1014600020400040004000C03FC03C0003C03C00A2
:101470003FC0000020403FC00C4023003FC0200080
:101480001F802040204020401F80000020403FC09F
:1014900024402400180000001F802140214020E04B
:1014A0001FA0000020403FC02440260019C000407B
:1014B00018C02440244022403180000030002040E9
:1014C0003FC020403000000020003F80004000402E
:1014D0003F80200020003E0001C0070038002000AF
:1014E000380007C03C0007C038000000204039C069
:1014F000060039C0204000002000384007C03840B6
:1015000020000000304021C02640384020C00000AC
:10151000000000007FE0402040200000000070003C
:101520000C000380004000000000402040207FE0CD
:10153000000000000000200040002000000000002B
:10154000001000100010001000100010000000003B
:10155000400000000000000000000280054005403F
:1015600003C0004020003FC004400440038000004E
:101570000000038004400440064000000000038097
:10158000044024403FC00040000003800540054067
:1015900003400000000004401FC0244024402000FD
:1015A000000002E0055005500650042020403FC0D6
:1015B0000440040003C000400000044027C0004075
:1015C0000000000000100010041027E000000000E0
:1015D00020403FC00140070004C00440204020409C
:1015E0003FC000400040000007C0040007C00400E6
:1015F00003C00000044007C00440040003C00040D2
:10160000000003800440044003800000041007F041
:101610000450044003800000000003800440045094
:1016200007F00010044007C002400400040000005E
:10163000000006400540054004C000000000040012
:101640001F80044000400000040007800040044068
:1016500007C000400400070004C001800600040029
:10166000060001C0070001C006000000044006C0DB
:10167000010006C0044000000410071004E00180CF
:10168000060004000000044005C0064004400000BD
:101690000000000004007BE040200000000000008B
:1016A0000000FFF000000000000040207BE004008C
:1016B00000000000400080004000200020004000AA
:1016C000000000000000000000000000000000001A
:1016D0000000000000001FCC000C00000000000013
:1016E00000000800300060000800300060000000CA
:1016F000022003FC1E20022003FC1E20022000000A
:1017000000000E1811043FFF10840C780000000048
:101710000F0010840F3800C007781884007800008C
:1017200000780F8410C411240E9800E4008400088F
:1017300008006800700000000000000000000000C9
:1017400000000000000007E018182004400200001C
:10175000000040022004181807E00000000000000C
:101760000240024001800FF0018002400240000070
:101770000080008000800FF8008000800080000062
:101780000001000D000E000000000000000000003D
:1017900000000080008000800080008000800080C9
:1017A0000000000C000C0000000000000000000021
:1017B00000000006001800600180060018002000EC
:1017C000000007F0080810041004080807F00000E3
:1017D0000000080408041FFC0004000400000000CE
:1017E00000000E0C10141024104411840E0C000084
:1017F00000000C1810041104110412880C70000071
:10180000000000E00320042408241FFC0024000042
:1018100000001F981084110411041088107000003B
:10182000000007F0088811041104188800700000F7
:1018300000001C00100010FC13001C001000000031
:1018400000000E3811441084108411440E3800003A
:1018500000000700088C10441044088807F00000BE
:10186000000000000000030C030C0000000000005A
:101870000000000000010106000000000000000060
:10188000000000800140022004100808100400003D
:10189000022002200220022002200220022000005A
:1018A000000010040808041002200140008000001D
:1018B00000000E001200100C106C10800F000000D1
:1018C00003E00C1813E4142417C4082807D0000000
:1018D0000004003C03C41C40074000E4001C00045A
:1018E00010041FFC1104110411040E880070000084
:1018F00003E00C1810041004100410081C10000061
:1019000010041FFC100410041004080807F0000065
:1019100010041FFC1104110417C41004081800005F
:1019200010041FFC1104110017C010000800000073
:1019300003E00C181004100410441C780040000050
:1019400010041FFC10840080008010841FFC100411
:101950000000100410041FFC10041004000000001C
:1019600000030001100110011FFE10001000000014
:1019700010041FFC110403801464181C10040000E0
:1019800010041FFC1004000400040004000C0000FC
:1019900010041FFC1F0000FC1F001FFC10040000AF
:1019A00010041FFC0C04030000E010181FFC1000C2
:1019B00007F00808100410041004080807F00000DD
:1019C00010041FFC10841080108010800F00000095
:1019D00007F0081810241024101C080A07F2000051
:1019E00010041FFC1104110011C011300E0C000472
:1019F00000000E1C11041084108410441C380000D8
:101A00001800100010041FFC100410001800000043
:101A100010001FF810040004000410041FF8100048
:101A200010001E0011E0001C007013801C0010004C
:101A30001FC0103C00E01F0000E0103C1FC0000071
:101A40001004180C163401C001C01634180C100410
:101A500010001C00130400FC13041C001000000004
:101A60000804101C1064108413041C0410180000D7
:101A70000000000000007FFE400240024002000023
:101A8000000030000C0003800060001C0003000018
:101A900000004002400240027FFE00000000000003
:101AA0000000000020004000400040002000000036
:101AB000000100010001000100010001000100011E
:101AC0000000400040002000000000000000000076
:101AD00000000098012401440144014400FC00047A
:101AE00010001FFC00880104010400880070000041
:101AF0000000007000880104010401040088000057
:101B00000000007000880104010411081FFC00049B
:101B1000000000F8014401440144014400C80000F1
:101B20000000010401040FFC11041104110018004D
:101B3000000000D601290129012901C90106000080
:101B400010041FFC008401000100010400FC0004DB
:101B500000000104190419FC000400040000000046
:101B60000000000300010101190119FE000000003E
:101B700010041FFC0024004001B4010C010400000B
:101B80000000100410041FFC00040004000000000A
:101B9000010401FC0104010001FC0104010000FC3E
:101BA000010401FC008401000100010400FC0004A8
:101BB000000000F8010401040104010400F8000021
:101BC000010101FF0085010401040088007000008C
:101BD00000000070008801040104010501FF0001FC
:101BE0000104010401FC00840104010001800000E3
:101BF000000000CC012401240124012401980000EC
:101C000000000100010007F80104010400000000C9
:101C1000010001F8000400040004010801FC0004B4
:101C2000010001800170000C0010016001800100C2
:101C300001F0010C003001C00030010C01F0010086
:101C400000000104018C00740170018C010400008B
:101C5000010101810171000E001801600180010085
:101C600000000184010C013401440184010C0000D6
:101C7000000000000000000001003EFC40024002A5
:101C80000000000000000000FFFF00000000000056
:101C90000000400240023EFC010000000000000085
:101CA0000000600080008000400040002000200014
:101CB00000003FFC3FFC300C300C300C300C300C82
:101CC000300C300C300C300C300C3FFC3FFC000072
:101CD00000000000000000000000000000003000D4
:101CE00030003FFC3FFC000000000000000000004E
:101CF000000039FC39FC318C318C318C318C318CC9
:101D0000318C318C318C318C318C3F8C3F8C00008C
:101D10000000381C381C318C318C318C318C318C6A
:101D2000318C318C318C318C318C3FFC3FFC00008C
:101D300000003F803F8001800180018001800180A0
:101D4000018001800180018001803FFC3FFC000098
:101D500000003FBC3FBC318C318C318C318C318CDC
:101D6000318C318C318C318C318C31FC31FC000068
:101D700000003F9C3F9C318C318C318C318C318CFC
:101D8000318C318C318C318C318C31FC31FC000048
:101D900000003800380030003000300030003000E3
:101DA000300030003000300030003FFC3FFC0000CD
:101DB00000003FFC3FFC318C318C318C318C318CFC
:101DC000318C318C318C318C318C3FFC3FFC0000EC
:101DD00000003F9C3F9C318C318C318C318C318C9C
:101DE000318C318C318C318C318C3FFC3FFC0000CC
:101DF000000000000000000000000000000018309B
:101E0000183000000000000000000000000000008A
:101E100000000000000000003FFFFFFC3FFFFFFC50
:101E20003000000C3000000C3000000C3000000CC2
:101E30003000000C3000000C3000000C3000000CB2
:101E40003FFFFFFC3FFFFFFC000000000000000020
:101E50000000000000000000000000000000000082
:101E60000000000000000000300000003000000012
:101E70003FFFFFFC3FFFFFFC0000000000000000F0
:101E80000000000000000000000000000000000052
:101E900000000000000000003C01FFFC3C01FFFCD2
:101EA0003001800C3001800C3001800C3001800C3E
:101EB0003001800C3001800C3001800C3001800C2E
:101EC0003FFF800C3FFF800C00000000000000007E
:101ED00000000000000000003800003C3800003C1A
:101EE0003001800C3001800C3001800C3001800CFE
:101EF0003001800C3001800C3001800C3001800CEE
:101F00003FFFFFFC3FFFFFFC00000000000000005F
:101F100000000000000000003FFF80003FFF800045
:101F200000018000000180000001800000018000AD
:101F3000000180000001800000018000000180009D
:101F40003FFFFFFC3FFFFFFC00000000000000001F
:101F500000000000000000003FFF803C3FFF803C8D
:101F60003001800C3001800C3001800C3001800C7D
:101F70003001800C3001800C3001800C3001800C6D
:101F80003001FFFC3001FFFC0000000000000000F9
:101F900000000000000000003FFFFFFC3FFFFFFCCF
:101FA0003001800C3001800C3001800C3001800C3D
:101FB0003001800C3001800C3001800C3001800C2D
:101FC0003C01FFFC3C01FFFC0000000000000000A1
:101FD00000000000000000003C0000003C00000089
:101FE0003000000030000000300000003000000031
:101FF0003000000030000000300000003000000021
:102000003FFFFFFC3FFFFFFC00000000000000005E
:1020100000000000000000003FFFFFFC3FFFFFFC4E
:102020003001800C3001800C3001800C3001800CBC
:102030003001800C3001800C3001800C3001800CAC
:102040003FFFFFFC3FFFFFFC00000000000000001E
:1020500000000000000000003FFF803C3FFF803C8C
:102060003001800C3001800C3001800C3001800C7C
:102070003001800C3001800C3001800C3001800C6C
:102080003FFFFFFC3FFFFFFC0000000000000000DE
:102090000000000000000000000000000000000040
:1020A000000000000FF00FF00FF00FF00C000030F8
:1020B0000C0000300FF00FF00FF00FF000000000E8
:1020C0000000000000000000000000000000000010
:1020D000000000000000000000003FF1818FFC3F85
:1020E000F1818FFC3031818C0C3001818C0C3001FE
:1020F000818C0C3FF1818C0C3FF1818C0C00318183
:102100008C0C0031818C0C3031818C0C3FF1FF8CB8
:102110000C3FF1FF8C0C00000000000000000000EC
:1021200000000000000000000000000000000000AF
:102130001FF810081818142813C8100810081FF8E2
:102140000FFE300226DA26DA26DA26DA30020FFE11
:102150001854321C1C325418C39924202C2499C3BF
:10216000C3BD42524E423CC300404040404040400C
:10217000404041414141414040404040404040405A
:1021800040404040404040404005020202020202FE
:10219000020202020202020202202020202020204D
:1021A0002020200202020202020290909090909061
:1021B000101010101010101010101010101010101F
:1021C0001010101002020202020288888888888893
:1021D000080808080808080808080808080808087F
:1021E00008080808020202024000000069210008F5
:1021F00010220008000000202400000090080008C1
:10220000342200082400002024090000A00800084F
:1022100000A24A04000000000000000000000D00C1
:1022200000000000000000000000000000000000AE
:0422300000000000AA
:04000005080000ED02
:00000001FF
